{
  "_format": "hh-sol-artifact-1",
  "contractName": "FundMe",
  "sourceName": "contracts/FundMe.sol",
  "abi": [
    {
      "inputs": [
        {
          "internalType": "address payable",
          "name": "_owner",
          "type": "address"
        }
      ],
      "stateMutability": "nonpayable",
      "type": "constructor"
    },
    {
      "anonymous": false,
      "inputs": [
        {
          "indexed": true,
          "internalType": "uint256",
          "name": "campaignId",
          "type": "uint256"
        }
      ],
      "name": "CampaignCancelled",
      "type": "event"
    },
    {
      "anonymous": false,
      "inputs": [
        {
          "indexed": true,
          "internalType": "uint256",
          "name": "campaignId",
          "type": "uint256"
        }
      ],
      "name": "CampaignClosed",
      "type": "event"
    },
    {
      "anonymous": false,
      "inputs": [
        {
          "indexed": true,
          "internalType": "address",
          "name": "projectOwner",
          "type": "address"
        },
        {
          "indexed": true,
          "internalType": "uint256",
          "name": "campaignId",
          "type": "uint256"
        }
      ],
      "name": "CampaignCreated",
      "type": "event"
    },
    {
      "anonymous": false,
      "inputs": [
        {
          "indexed": true,
          "internalType": "uint256",
          "name": "campaignId",
          "type": "uint256"
        },
        {
          "indexed": true,
          "internalType": "address",
          "name": "ProjectOwner",
          "type": "address"
        },
        {
          "indexed": true,
          "internalType": "uint256",
          "name": "amount",
          "type": "uint256"
        }
      ],
      "name": "FundsWithdrawn",
      "type": "event"
    },
    {
      "anonymous": false,
      "inputs": [
        {
          "indexed": true,
          "internalType": "uint256",
          "name": "campaignId",
          "type": "uint256"
        },
        {
          "indexed": true,
          "internalType": "bytes32",
          "name": "milestoneHash",
          "type": "bytes32"
        }
      ],
      "name": "MilestoneCreated",
      "type": "event"
    },
    {
      "anonymous": false,
      "inputs": [
        {
          "indexed": true,
          "internalType": "bytes32",
          "name": "milestoneHash",
          "type": "bytes32"
        },
        {
          "indexed": true,
          "internalType": "string",
          "name": "milestoneProofCID",
          "type": "string"
        }
      ],
      "name": "MilestoneProofUpdated",
      "type": "event"
    },
    {
      "anonymous": false,
      "inputs": [
        {
          "indexed": false,
          "internalType": "bytes32",
          "name": "milestoneHash",
          "type": "bytes32"
        }
      ],
      "name": "MilestoneValidated",
      "type": "event"
    },
    {
      "anonymous": false,
      "inputs": [
        {
          "indexed": true,
          "internalType": "uint256",
          "name": "campaignId",
          "type": "uint256"
        },
        {
          "indexed": true,
          "internalType": "address",
          "name": "donor",
          "type": "address"
        },
        {
          "indexed": true,
          "internalType": "uint256",
          "name": "amount",
          "type": "uint256"
        }
      ],
      "name": "PledgedToCampaign",
      "type": "event"
    },
    {
      "anonymous": false,
      "inputs": [
        {
          "indexed": true,
          "internalType": "uint256",
          "name": "campaignId",
          "type": "uint256"
        },
        {
          "indexed": true,
          "internalType": "address",
          "name": "donor",
          "type": "address"
        },
        {
          "indexed": true,
          "internalType": "uint256",
          "name": "amount",
          "type": "uint256"
        }
      ],
      "name": "Refunded",
      "type": "event"
    },
    {
      "anonymous": false,
      "inputs": [
        {
          "indexed": true,
          "internalType": "uint256",
          "name": "campaignId",
          "type": "uint256"
        },
        {
          "indexed": true,
          "internalType": "address",
          "name": "donor",
          "type": "address"
        }
      ],
      "name": "Unpledged",
      "type": "event"
    },
    {
      "inputs": [
        {
          "internalType": "uint256",
          "name": "",
          "type": "uint256"
        }
      ],
      "name": "campaignBalances",
      "outputs": [
        {
          "internalType": "uint256",
          "name": "",
          "type": "uint256"
        }
      ],
      "stateMutability": "view",
      "type": "function"
    },
    {
      "inputs": [],
      "name": "campaignCount",
      "outputs": [
        {
          "internalType": "uint256",
          "name": "",
          "type": "uint256"
        }
      ],
      "stateMutability": "view",
      "type": "function"
    },
    {
      "inputs": [
        {
          "internalType": "uint256",
          "name": "",
          "type": "uint256"
        },
        {
          "internalType": "address",
          "name": "",
          "type": "address"
        }
      ],
      "name": "campaignDonorStatus",
      "outputs": [
        {
          "internalType": "bool",
          "name": "",
          "type": "bool"
        }
      ],
      "stateMutability": "view",
      "type": "function"
    },
    {
      "inputs": [
        {
          "internalType": "uint256",
          "name": "",
          "type": "uint256"
        }
      ],
      "name": "campaignIds",
      "outputs": [
        {
          "internalType": "uint256",
          "name": "",
          "type": "uint256"
        }
      ],
      "stateMutability": "view",
      "type": "function"
    },
    {
      "inputs": [
        {
          "internalType": "uint256",
          "name": "",
          "type": "uint256"
        }
      ],
      "name": "campaigns",
      "outputs": [
        {
          "internalType": "uint256",
          "name": "campaignId",
          "type": "uint256"
        },
        {
          "internalType": "address payable",
          "name": "projectOwner",
          "type": "address"
        },
        {
          "internalType": "string",
          "name": "title",
          "type": "string"
        },
        {
          "internalType": "string",
          "name": "imageURL",
          "type": "string"
        },
        {
          "internalType": "uint256",
          "name": "campaignGoal",
          "type": "uint256"
        },
        {
          "internalType": "uint256",
          "name": "totalFundDonated",
          "type": "uint256"
        },
        {
          "internalType": "uint256",
          "name": "totalDonors",
          "type": "uint256"
        },
        {
          "internalType": "uint256",
          "name": "milestoneNum",
          "type": "uint256"
        },
        {
          "internalType": "uint256",
          "name": "milestoneCount",
          "type": "uint256"
        },
        {
          "internalType": "uint256",
          "name": "timeline",
          "type": "uint256"
        },
        {
          "internalType": "uint256",
          "name": "timestamp",
          "type": "uint256"
        },
        {
          "internalType": "enum FundMe.CampaignStatus",
          "name": "status",
          "type": "uint8"
        }
      ],
      "stateMutability": "view",
      "type": "function"
    },
    {
      "inputs": [
        {
          "internalType": "uint256",
          "name": "campaignId",
          "type": "uint256"
        }
      ],
      "name": "cancelCampaign",
      "outputs": [
        {
          "internalType": "bool",
          "name": "",
          "type": "bool"
        }
      ],
      "stateMutability": "nonpayable",
      "type": "function"
    },
    {
      "inputs": [
        {
          "internalType": "string",
          "name": "_title",
          "type": "string"
        },
        {
          "internalType": "string",
          "name": "_imageURL",
          "type": "string"
        },
        {
          "internalType": "uint256",
          "name": "_campaignGoal",
          "type": "uint256"
        },
        {
          "internalType": "uint256",
          "name": "_timeline",
          "type": "uint256"
        },
        {
          "internalType": "uint256",
          "name": "_milestoneNum",
          "type": "uint256"
        },
        {
          "internalType": "string",
          "name": "_verificationProof",
          "type": "string"
        }
      ],
      "name": "createCampaign",
      "outputs": [
        {
          "internalType": "bool",
          "name": "",
          "type": "bool"
        },
        {
          "internalType": "uint256",
          "name": "campaignId",
          "type": "uint256"
        }
      ],
      "stateMutability": "nonpayable",
      "type": "function"
    },
    {
      "inputs": [
        {
          "internalType": "uint256",
          "name": "campaignId",
          "type": "uint256"
        },
        {
          "internalType": "uint256",
          "name": "_milestoneIndex",
          "type": "uint256"
        },
        {
          "internalType": "string",
          "name": "_milestoneDetails",
          "type": "string"
        }
      ],
      "name": "createMilestone",
      "outputs": [
        {
          "internalType": "bool",
          "name": "",
          "type": "bool"
        }
      ],
      "stateMutability": "nonpayable",
      "type": "function"
    },
    {
      "inputs": [
        {
          "internalType": "address",
          "name": "",
          "type": "address"
        }
      ],
      "name": "donorData",
      "outputs": [
        {
          "internalType": "address payable",
          "name": "donor",
          "type": "address"
        },
        {
          "internalType": "uint256",
          "name": "amountDonated",
          "type": "uint256"
        }
      ],
      "stateMutability": "view",
      "type": "function"
    },
    {
      "inputs": [],
      "name": "fundmePlatform",
      "outputs": [
        {
          "internalType": "address",
          "name": "",
          "type": "address"
        }
      ],
      "stateMutability": "view",
      "type": "function"
    },
    {
      "inputs": [],
      "name": "getActiveCampaignIds",
      "outputs": [
        {
          "internalType": "uint256[]",
          "name": "",
          "type": "uint256[]"
        }
      ],
      "stateMutability": "view",
      "type": "function"
    },
    {
      "inputs": [
        {
          "internalType": "uint256",
          "name": "campaignId",
          "type": "uint256"
        }
      ],
      "name": "getDonorAddressesInCampaign",
      "outputs": [
        {
          "internalType": "address[]",
          "name": "",
          "type": "address[]"
        }
      ],
      "stateMutability": "view",
      "type": "function"
    },
    {
      "inputs": [
        {
          "internalType": "uint256",
          "name": "campaignId",
          "type": "uint256"
        }
      ],
      "name": "getMilestoneList",
      "outputs": [
        {
          "internalType": "bytes32[]",
          "name": "",
          "type": "bytes32[]"
        }
      ],
      "stateMutability": "view",
      "type": "function"
    },
    {
      "inputs": [
        {
          "internalType": "address",
          "name": "",
          "type": "address"
        }
      ],
      "name": "hasActiveCampaign",
      "outputs": [
        {
          "internalType": "bool",
          "name": "",
          "type": "bool"
        }
      ],
      "stateMutability": "view",
      "type": "function"
    },
    {
      "inputs": [
        {
          "internalType": "uint256",
          "name": "",
          "type": "uint256"
        }
      ],
      "name": "inactiveCampaigns",
      "outputs": [
        {
          "internalType": "bool",
          "name": "",
          "type": "bool"
        }
      ],
      "stateMutability": "view",
      "type": "function"
    },
    {
      "inputs": [
        {
          "internalType": "address",
          "name": "",
          "type": "address"
        },
        {
          "internalType": "string",
          "name": "",
          "type": "string"
        }
      ],
      "name": "isKYCVerified",
      "outputs": [
        {
          "internalType": "bool",
          "name": "",
          "type": "bool"
        }
      ],
      "stateMutability": "view",
      "type": "function"
    },
    {
      "inputs": [
        {
          "internalType": "bytes32",
          "name": "",
          "type": "bytes32"
        },
        {
          "internalType": "address",
          "name": "",
          "type": "address"
        }
      ],
      "name": "milestoneValidatedByHash",
      "outputs": [
        {
          "internalType": "bool",
          "name": "",
          "type": "bool"
        }
      ],
      "stateMutability": "view",
      "type": "function"
    },
    {
      "inputs": [
        {
          "internalType": "bytes32",
          "name": "",
          "type": "bytes32"
        }
      ],
      "name": "milestonesOf",
      "outputs": [
        {
          "internalType": "bytes32",
          "name": "milestoneHash",
          "type": "bytes32"
        },
        {
          "internalType": "uint256",
          "name": "milestoneIndex",
          "type": "uint256"
        },
        {
          "internalType": "string",
          "name": "milestoneDetails",
          "type": "string"
        },
        {
          "internalType": "uint256",
          "name": "milestoneGoal",
          "type": "uint256"
        },
        {
          "internalType": "string",
          "name": "milestoneProofCID",
          "type": "string"
        },
        {
          "internalType": "bool",
          "name": "milestoneValidated",
          "type": "bool"
        },
        {
          "internalType": "uint256",
          "name": "milestoneVotes",
          "type": "uint256"
        },
        {
          "internalType": "uint256",
          "name": "timestamp",
          "type": "uint256"
        }
      ],
      "stateMutability": "view",
      "type": "function"
    },
    {
      "inputs": [
        {
          "internalType": "uint256",
          "name": "campaignId",
          "type": "uint256"
        },
        {
          "internalType": "uint256",
          "name": "amountToRefund",
          "type": "uint256"
        }
      ],
      "name": "performRefund",
      "outputs": [],
      "stateMutability": "payable",
      "type": "function"
    },
    {
      "inputs": [
        {
          "internalType": "uint256",
          "name": "campaignId",
          "type": "uint256"
        },
        {
          "internalType": "uint256",
          "name": "amountToDonate",
          "type": "uint256"
        }
      ],
      "name": "pledgeToCampaign",
      "outputs": [],
      "stateMutability": "payable",
      "type": "function"
    },
    {
      "inputs": [
        {
          "internalType": "uint256",
          "name": "",
          "type": "uint256"
        }
      ],
      "name": "projectOwners",
      "outputs": [
        {
          "internalType": "address",
          "name": "",
          "type": "address"
        }
      ],
      "stateMutability": "view",
      "type": "function"
    },
    {
      "inputs": [
        {
          "internalType": "uint256",
          "name": "campaignId",
          "type": "uint256"
        }
      ],
      "name": "refundDonor",
      "outputs": [],
      "stateMutability": "payable",
      "type": "function"
    },
    {
      "inputs": [
        {
          "internalType": "string",
          "name": "verificationProof",
          "type": "string"
        }
      ],
      "name": "setKycVerified",
      "outputs": [
        {
          "internalType": "bool",
          "name": "",
          "type": "bool"
        }
      ],
      "stateMutability": "nonpayable",
      "type": "function"
    },
    {
      "inputs": [],
      "name": "snapshotBalance",
      "outputs": [
        {
          "internalType": "uint256",
          "name": "",
          "type": "uint256"
        }
      ],
      "stateMutability": "view",
      "type": "function"
    },
    {
      "inputs": [],
      "name": "transactionFee",
      "outputs": [
        {
          "internalType": "uint256",
          "name": "",
          "type": "uint256"
        }
      ],
      "stateMutability": "view",
      "type": "function"
    },
    {
      "inputs": [
        {
          "internalType": "uint256",
          "name": "campaignId",
          "type": "uint256"
        }
      ],
      "name": "unpledge",
      "outputs": [],
      "stateMutability": "payable",
      "type": "function"
    },
    {
      "inputs": [
        {
          "internalType": "bytes32",
          "name": "milestoneHash",
          "type": "bytes32"
        },
        {
          "internalType": "string",
          "name": "milestoneProofCID",
          "type": "string"
        }
      ],
      "name": "updateMilestoneProof",
      "outputs": [
        {
          "internalType": "string",
          "name": "",
          "type": "string"
        }
      ],
      "stateMutability": "nonpayable",
      "type": "function"
    },
    {
      "inputs": [
        {
          "internalType": "bytes32",
          "name": "milestoneHash",
          "type": "bytes32"
        }
      ],
      "name": "validateMilestone",
      "outputs": [
        {
          "internalType": "bool",
          "name": "",
          "type": "bool"
        }
      ],
      "stateMutability": "nonpayable",
      "type": "function"
    },
    {
      "inputs": [
        {
          "internalType": "address",
          "name": "",
          "type": "address"
        }
      ],
      "name": "verifiedAddress",
      "outputs": [
        {
          "internalType": "bool",
          "name": "",
          "type": "bool"
        }
      ],
      "stateMutability": "view",
      "type": "function"
    },
    {
      "inputs": [
        {
          "internalType": "uint256",
          "name": "campaignId",
          "type": "uint256"
        },
        {
          "internalType": "bytes32",
          "name": "milestoneHash",
          "type": "bytes32"
        }
      ],
      "name": "withdraw",
      "outputs": [
        {
          "internalType": "bool",
          "name": "",
          "type": "bool"
        }
      ],
      "stateMutability": "payable",
      "type": "function"
    },
    {
      "stateMutability": "payable",
      "type": "receive"
    }
  ],
  "bytecode": "0x60806040523480156200001157600080fd5b506040516200302f3803806200302f83398101604081905262000034916200005a565b600080546001600160a01b0319166001600160a01b03929092169190911790556200008a565b6000602082840312156200006c578081fd5b81516001600160a01b038116811462000083578182fd5b9392505050565b612f95806200009a6000396000f3fe6080604052600436106101d05760003560e01c8063678996da116100f757806393d4457a11610095578063b369359d11610064578063b369359d14610578578063c7258ba614610598578063f0db6101146105ab578063fd45b85b146105cb576101fd565b806393d4457a1461051b5780639ed3edf01461053b578063a8d2021a14610550578063a991c9b514610563576101fd565b80637274e30d116100d15780637274e30d146104a657806381d62ecb146104bb5780638dc0d885146104db578063917ba901146104fb576101fd565b8063678996da146104455780636b047df414610458578063716be86714610486576101fd565b80632554f26c1161016f5780634888bd531161013e5780634888bd53146103c557806353339ba0146103d85780635342c20e146103f85780635aaf1e5414610418576101fd565b80632554f26c146103355780632941b0c31461035757806343eabbfa1461038557806345598b4a146103a5576101fd565b80630c45b7d8116101ab5780630c45b7d81461027a5780630c5fd0ae1461029c578063141961bc146102c95780632145dbff14610301576101fd565b80624545ef1461020257806301bc3f6d146102385780630235cacc1461024d576101fd565b366101fd576012546000908152600c6020526040812080543492906101f6908490612e45565b9091555050005b600080fd5b34801561020e57600080fd5b5061022261021d3660046122d1565b6105eb565b60405161022f9190612648565b60405180910390f35b61024b610246366004612337565b610600565b005b34801561025957600080fd5b5061026d610268366004612337565b610860565b60405161022f9190612663565b34801561028657600080fd5b5061028f610872565b60405161022f9190612610565b3480156102a857600080fd5b506102bc6102b7366004612337565b610979565b60405161022f91906125c3565b3480156102d557600080fd5b506102e96102e4366004612337565b610a56565b60405161022f9c9b9a99989796959493929190612da0565b34801561030d57600080fd5b5061032161031c366004612337565b610bcf565b60405161022f98979695949392919061266c565b34801561034157600080fd5b5061034a610d26565b60405161022f9190612596565b34801561036357600080fd5b506103776103723660046122d1565b610d35565b60405161022f9291906125aa565b34801561039157600080fd5b506102226103a03660046123a9565b610d5a565b3480156103b157600080fd5b506102226103c0366004612337565b610de0565b61024b6103d3366004612484565b610f8f565b3480156103e457600080fd5b5061034a6103f3366004612337565b6110a8565b34801561040457600080fd5b5061022261041336600461234f565b6110c3565b34801561042457600080fd5b5061043861043336600461237a565b6110e3565b60405161022f91906126c7565b61024b610453366004612484565b61117a565b34801561046457600080fd5b506104786104733660046123e4565b6113a6565b60405161022f929190612653565b34801561049257600080fd5b506102226104a13660046124a5565b611728565b3480156104b257600080fd5b5061026d6119ac565b3480156104c757600080fd5b506102226104d636600461234f565b6119b2565b3480156104e757600080fd5b5061028f6104f6366004612337565b6119d2565b34801561050757600080fd5b50610222610516366004612337565b611a34565b34801561052757600080fd5b506102226105363660046122d1565b611b04565b34801561054757600080fd5b5061026d611b19565b61022261055e366004612484565b611b1f565b34801561056f57600080fd5b5061026d611d3a565b34801561058457600080fd5b5061026d610593366004612337565b611d40565b61024b6105a6366004612337565b611d61565b3480156105b757600080fd5b506102226105c6366004612337565b611e9c565b3480156105d757600080fd5b506102226105e63660046122eb565b611eb1565b60076020526000908152604090205460ff1681565b3361060f565b60405180910390fd5b6000828152600560205260408120600b015460ff16600681111561064357634e487b7160e01b600052602160045260246000fd5b1480610682575060046000838152600560205260409020600b015460ff16600681111561068057634e487b7160e01b600052602160045260246000fd5b145b156106e8576000828152600b6020908152604080832033845290915290205460ff1615156001146106c55760405162461bcd60e51b81526004016106069061284d565b336000908152600960205260409020600101546106e28382610f8f565b5061085c565b60016000838152600560205260409020600b015460ff16600681111561071e57634e487b7160e01b600052602160045260246000fd5b148061075d575060026000838152600560205260409020600b015460ff16600681111561075b57634e487b7160e01b600052602160045260246000fd5b145b8061079b575060046000838152600560205260409020600b015460ff16600681111561079957634e487b7160e01b600052602160045260246000fd5b145b15610844576000828152600b6020908152604080832033845290915290205460ff166107d95760405162461bcd60e51b81526004016106069061284d565b600082815260056020818152604080842090920154338452600990915290822060010154610813919061080d906064611ee2565b90611ef7565b90506000610831606461080d84600354611ee290919063ffffffff16565b905061083d8482610f8f565b505061085c565b60405162461bcd60e51b815260040161060690612d69565b5050565b600c6020526000908152604090205481565b60045460609060009067ffffffffffffffff8111156108a157634e487b7160e01b600052604160045260246000fd5b6040519080825280602002602001820160405280156108ca578160200160208202803683370190505b5090506000805b600454811015610971576000600482815481106108fe57634e487b7160e01b600052603260045260246000fd5b6000918252602080832090910154808352600890915260409091205490915060ff1661095e578084848151811061094557634e487b7160e01b600052603260045260246000fd5b60209081029190910101528261095a81612f18565b9350505b508061096981612f18565b9150506108d1565b508152905090565b6000818152600a6020526040812060609161099382611f03565b67ffffffffffffffff8111156109b957634e487b7160e01b600052604160045260246000fd5b6040519080825280602002602001820160405280156109e2578160200160208202803683370190505b50905060005b6109f183611f03565b811015610a4c57610a028382611f0e565b828281518110610a2257634e487b7160e01b600052603260045260246000fd5b6001600160a01b039092166020928302919091019091015280610a4481612f18565b9150506109e8565b509150505b919050565b60056020526000908152604090208054600182015460028301805492936001600160a01b0390921692610a8890612ee3565b80601f0160208091040260200160405190810160405280929190818152602001828054610ab490612ee3565b8015610b015780601f10610ad657610100808354040283529160200191610b01565b820191906000526020600020905b815481529060010190602001808311610ae457829003601f168201915b505050505090806003018054610b1690612ee3565b80601f0160208091040260200160405190810160405280929190818152602001828054610b4290612ee3565b8015610b8f5780601f10610b6457610100808354040283529160200191610b8f565b820191906000526020600020905b815481529060010190602001808311610b7257829003601f168201915b505050600484015460058501546006860154600787015460088801546009890154600a8a0154600b909a0154989995989497509295509093909260ff168c565b600f6020526000908152604090208054600182015460028301805492939192610bf790612ee3565b80601f0160208091040260200160405190810160405280929190818152602001828054610c2390612ee3565b8015610c705780601f10610c4557610100808354040283529160200191610c70565b820191906000526020600020905b815481529060010190602001808311610c5357829003601f168201915b505050505090806003015490806004018054610c8b90612ee3565b80601f0160208091040260200160405190810160405280929190818152602001828054610cb790612ee3565b8015610d045780601f10610cd957610100808354040283529160200191610d04565b820191906000526020600020905b815481529060010190602001808311610ce757829003601f168201915b5050505060058301546006840154600790940154929360ff9091169290915088565b6000546001600160a01b031681565b600960205260009081526040902080546001909101546001600160a01b039091169082565b600080825111610d7c5760405162461bcd60e51b815260040161060690612711565b336000908152600d602052604090819020905160019190610d9e90859061251f565b90815260408051918290036020908101909220805493151560ff19948516179055336000908152600e9092529020805490911660019081179091559050919050565b600033600080848152600560205260409020600b015460ff166006811115610e1857634e487b7160e01b600052602160045260246000fd5b14610e355760405162461bcd60e51b815260040161060690612a0b565b6000838152600c602052604090205415610e7c576000838152600560209081526040808320600b01805460ff19166002179055600c90915290205460035560019150610f89565b6000838152600560205260408120600b8101805460ff19166001908117909155828255810180546001600160a01b031916905590610ebd6002830182612161565b610ecb600383016000612161565b50600060048201819055600582018190556006808301829055600783018290556008830182905560098301829055600a8301829055600b909201805460ff191690558481526020919091526040902080546001600160a01b0319169055600254610f36906001611f1a565b600255336000908152600760205260409020805460ff19169055610f5983611f26565b60405183907f403b6718db13878ac16c27decb08f09d3a10f116c7c25af575ff5bfbc11ae9e690600090a2600191505b50919050565b60008281526005602081905260408220018054839290610fb0908490612e9c565b90915550506000828152600c602052604081208054839290610fd3908490612e9c565b9091555050604051339082156108fc029083906000818181858888f19350505050158015611005573d6000803e3d6000fd5b50336000818152600960209081526040808320600101839055858352600a909152902061103191611f70565b506000828152600560205260408120600601805460019290611054908490612e9c565b90915550506000828152600b60209081526040808320338085529252808320805460ff1916905551839285917f7ca5472b7ea78c2c0141c5a12ee6d170cf4ce8ed06be3d22c8252ddfc7a6a2c49190a45050565b6006602052600090815260409020546001600160a01b031681565b600b60209081526000928352604080842090915290825290205460ff1681565b60603360008481526011602090815260408083203384528252808320805460ff19908116909155878452600f83529220600581018054909316909255845161113192600401918601906121a0565b5082604051611140919061251f565b6040519081900381209085907fe0468601b7788d41d2a42fab31279f38a47422b63c6842f402e6253ffa54353990600090a3509092915050565b6000811161119a5760405162461bcd60e51b815260040161060690612910565b6000828152600560205260409020600101546001600160a01b03163314156111d45760405162461bcd60e51b8152600401610606906129c5565b6000828152600560205260408120600b015460ff16600681111561120857634e487b7160e01b600052602160045260246000fd5b1480611247575060046000838152600560205260409020600b015460ff16600681111561124557634e487b7160e01b600052602160045260246000fd5b145b6112635760405162461bcd60e51b815260040161060690612756565b6000828152600c602052604081208054839290611281908490612e45565b9091555050600082815260056020819052604082200180548392906112a7908490612e45565b909155505060008281526005602052604081206006018054600192906112ce908490612e45565b9091555050336000908152600960205260409020546001600160a01b031661132d5733600081815260096020908152604080832080546001600160a01b03191685178155600101839055858352600a909152902061132b91611f85565b505b336000908152600960205260408120600101805483929061134f908490612e45565b90915550506000828152600b60209081526040808320338085529252808320805460ff1916600117905551839285917fa4afbccb19f2dee8b2fb1f0857f6a8ec4fd87b8f8b94e78e5a3e819bb682848e9190a45050565b60008060008851116113ca5760405162461bcd60e51b81526004016106069061289c565b60008751116113eb5760405162461bcd60e51b81526004016106069061297c565b6000861161140b5760405162461bcd60e51b8152600401610606906128cb565b42851161142a5760405162461bcd60e51b815260040161060690612a3b565b600484101561144b5760405162461bcd60e51b815260040161060690612c41565b336000908152600d602052604090819020905161146990859061251f565b9081526040519081900360200190205460ff166114985760405162461bcd60e51b815260040161060690612cbc565b3360009081526007602052604090205460ff16156114c85760405162461bcd60e51b815260040161060690612b9b565b878533426040516020016114df949392919061253b565b6040516020818303038152906040528051906020012060001c905080601281905550604051806101800160405280828152602001336001600160a01b031681526020018981526020018881526020018781526020016000815260200160008152602001858152602001600081526020018681526020014281526020016000600681111561157c57634e487b7160e01b600052602160045260246000fd5b905260008281526005602090815260409182902083518155838201516001820180546001600160a01b0319166001600160a01b039092169190911790559183015180516115cf92600285019201906121a0565b50606082015180516115eb9160038401916020909101906121a0565b506080820151816004015560a0820151816005015560c0820151816006015560e082015181600701556101008201518160080155610120820151816009015561014082015181600a015561016082015181600b0160006101000a81548160ff0219169083600681111561166e57634e487b7160e01b600052602160045260246000fd5b02179055505050600081815260066020526040902080546001600160a01b031916331790556002546116a1906001611f9a565b60025533600081815260076020526040808220805460ff1916600190811790915560048054918201815583527f8a35acfbc15ff81a39ae7d344fd709f28e8600b4aa8c65c6b64bfe7fe36bd19b01849055518392917ffc5b9d1c2c1134048e1792e3ae27d4eee04f460d341711c7088000d2ca21862191a360019150965096945050505050565b6000336000841161174b5760405162461bcd60e51b815260040161060690612ac3565b600083511161176c5760405162461bcd60e51b8152600401610606906127b3565b60008581526005602052604090206007810154600890910154106117a25760405162461bcd60e51b815260040161060690612d19565b6000858152600560205260408120600b015460ff1660068111156117d657634e487b7160e01b600052602160045260246000fd5b146117f35760405162461bcd60e51b815260040161060690612a0b565b60008385334260405160200161180c949392919061253b565b60408051601f1981840301815291815281516020928301206000898152600590935290822060078101546004909101549193506118499190611ef7565b905061185d81670de0b6b3a7640000611ee2565b604080516101008101825284815260208082018a81528284018a815260608401869052845180840186526000808252608086019190915260a0850181905260c085018190524260e0860152888152600f84529490942083518155905160018201559251805194955091936118d792600285019201906121a0565b5060608201516003820155608082015180516118fd9160048401916020909101906121a0565b5060a08201516005828101805460ff19169215159290921790915560c0830151600683015560e09092015160079091015560008881526020919091526040812060080180549161194c83612f18565b90915550506000878152601060209081526040808320805460018101825590845291832090910184905551839189917fc6b10dc4f336d9ac827ab14b3abdab1f4c0efd9de9458c55e26dc0e67f8a532b9190a35060019695505050505050565b60025481565b601160209081526000928352604080842090915290825290205460ff1681565b600081815260106020908152604091829020805483518184028101840190945280845260609392830182828015611a2857602002820191906000526020600020905b815481526020019060010190808311611a14575b50505050509050919050565b600081815260116020908152604080832033808552925282205460ff1615611a6e5760405162461bcd60e51b815260040161060690612804565b600083815260116020908152604080832033845282528083208054600160ff199182168117909255878552600f909352908320600581018054909316909117909155600601805491611abf83612f18565b91905055507f55cbae906c24c404f4b5819c40a54875062ee99c0983031fad1bb25e036c8d2883604051611af39190612663565b60405180910390a150600192915050565b600e6020526000908152604090205460ff1681565b60015481565b60003360056000858152600560205260409020600b015460ff166006811115611b5857634e487b7160e01b600052602160045260246000fd5b1480611b97575060036000858152600560205260409020600b015460ff166006811115611b9557634e487b7160e01b600052602160045260246000fd5b145b611bb35760405162461bcd60e51b815260040161060690612b3e565b600084815260056020819052604090912060048101549101541015611bea5760405162461bcd60e51b815260040161060690612b07565b600084815260056020819052604090912060040154611c0f9160649161080d91611ee2565b6001556000838152600f602052604090206005015460ff16611c435760405162461bcd60e51b815260040161060690612947565b6000848152600560209081526040808320600690810154878552600f909352922090910154603c91611c7a9161080d906064611ee2565b1015611c985760405162461bcd60e51b815260040161060690612c78565b60008481526005602052604081206007810154600154600490920154611cc29261080d9190611f1a565b604051909150339082156108fc029083906000818181858888f19350505050158015611cf2573d6000803e3d6000fd5b50600080546001546040516001600160a01b039092169281156108fc029290818181858888f19350505050158015611d2e573d6000803e3d6000fd5b50600195945050505050565b60035481565b60048181548110611d5057600080fd5b600091825260209091200154905081565b33600080838152600560205260409020600b015460ff166006811115611d9757634e487b7160e01b600052602160045260246000fd5b1480611dd6575060046000838152600560205260409020600b015460ff166006811115611dd457634e487b7160e01b600052602160045260246000fd5b145b611df25760405162461bcd60e51b815260040161060690612be4565b6000828152600b6020908152604080832033845290915290205460ff161515600114611e305760405162461bcd60e51b815260040161060690612a7e565b3360009081526009602052604090206001015480611e605760405162461bcd60e51b815260040161060690612a7e565b611e6a8382610f8f565b604051339084907fb32327a436f8c174314a255814ac1ed96df4f05ae8c0a641fc49b9a649e3c59990600090a3505050565b60086020526000908152604090205460ff1681565b600d602090815260009283526040909220815180830184018051928152908401929093019190912091525460ff1681565b6000611eee8284612e7d565b90505b92915050565b6000611eee8284612e5d565b6000611ef182611fa6565b6000611eee8383611faa565b6000611eee8284612e9c565b60008181526008602052604090205460ff1615611f555760405162461bcd60e51b8152600401610606906126da565b6000908152600860205260409020805460ff19166001179055565b6000611eee836001600160a01b038416611fe2565b6000611eee836001600160a01b0384166120ff565b6000611eee8284612e45565b5490565b6000826000018281548110611fcf57634e487b7160e01b600052603260045260246000fd5b9060005260206000200154905092915050565b600081815260018301602052604081205480156120f5576000612006600183612e9c565b855490915060009061201a90600190612e9c565b905081811461209b57600086600001828154811061204857634e487b7160e01b600052603260045260246000fd5b906000526020600020015490508087600001848154811061207957634e487b7160e01b600052603260045260246000fd5b6000918252602080832090910192909255918252600188019052604090208390555b85548690806120ba57634e487b7160e01b600052603160045260246000fd5b600190038181906000526020600020016000905590558560010160008681526020019081526020016000206000905560019350505050611ef1565b6000915050611ef1565b600061210b8383612149565b61214157508154600181810184556000848152602080822090930184905584548482528286019093526040902091909155611ef1565b506000611ef1565b60009081526001919091016020526040902054151590565b50805461216d90612ee3565b6000825580601f1061217f575061219d565b601f01602090049060005260206000209081019061219d9190612224565b50565b8280546121ac90612ee3565b90600052602060002090601f0160209004810192826121ce5760008555612214565b82601f106121e757805160ff1916838001178555612214565b82800160010185558215612214579182015b828111156122145782518255916020019190600101906121f9565b50612220929150612224565b5090565b5b808211156122205760008155600101612225565b80356001600160a01b0381168114610a5157600080fd5b600082601f830112612260578081fd5b813567ffffffffffffffff8082111561227b5761227b612f49565b604051601f8301601f19168101602001828111828210171561229f5761229f612f49565b6040528281528483016020018610156122b6578384fd5b82602086016020830137918201602001929092529392505050565b6000602082840312156122e2578081fd5b611eee82612239565b600080604083850312156122fd578081fd5b61230683612239565b9150602083013567ffffffffffffffff811115612321578182fd5b61232d85828601612250565b9150509250929050565b600060208284031215612348578081fd5b5035919050565b60008060408385031215612361578182fd5b8235915061237160208401612239565b90509250929050565b6000806040838503121561238c578182fd5b82359150602083013567ffffffffffffffff811115612321578182fd5b6000602082840312156123ba578081fd5b813567ffffffffffffffff8111156123d0578182fd5b6123dc84828501612250565b949350505050565b60008060008060008060c087890312156123fc578182fd5b863567ffffffffffffffff80821115612413578384fd5b61241f8a838b01612250565b97506020890135915080821115612434578384fd5b6124408a838b01612250565b965060408901359550606089013594506080890135935060a089013591508082111561246a578283fd5b5061247789828a01612250565b9150509295509295509295565b60008060408385031215612496578182fd5b50508035926020909101359150565b6000806000606084860312156124b9578283fd5b8335925060208401359150604084013567ffffffffffffffff8111156124dd578182fd5b6124e986828701612250565b9150509250925092565b6000815180845261250b816020860160208601612eb3565b601f01601f19169290920160200192915050565b60008251612531818460208701612eb3565b9190910192915050565b6000855161254d818460208a01612eb3565b605f60f81b92018281526001810195909552506021840181905260609290921b6bffffffffffffffffffffffff1916602284015260368301919091526037820152605701919050565b6001600160a01b0391909116815260200190565b6001600160a01b03929092168252602082015260400190565b6020808252825182820181905260009190848201906040850190845b818110156126045783516001600160a01b0316835292840192918401916001016125df565b50909695505050505050565b6020808252825182820181905260009190848201906040850190845b818110156126045783518352928401929184019160010161262c565b901515815260200190565b9115158252602082015260400190565b90815260200190565b60006101008a835289602084015280604084015261268c8184018a6124f3565b905087606084015282810360808401526126a681886124f3565b95151560a0840152505060c081019290925260e09091015295945050505050565b600060208252611eee60208301846124f3565b60208082526019908201527f43616d706169676e20616c726561647920696e61637469766500000000000000604082015260600190565b60208082526025908201527f596f75206d7573742070726f76696465206120766572696669636174696f6e20604082015264383937b7b360d91b606082015260800190565b60208082526037908201527f596f752063616e6e6f7420706c656467652066756e647320746f20746869732060408201527f63616d706169676e2061742074686973206d6f6d656e74000000000000000000606082015260800190565b60208082526031908201527f596f75206861766520746f2070726f766964652064657461696c7320666f7220604082015270746865206e6577206d696c6573746f6e6560781b606082015260800190565b60208082526029908201527f596f75206861766520616c72656164792076616c6964617465642074686973206040820152686d696c6573746f6e6560b81b606082015260800190565b6020808252602f908201527f5468697320646f6e6f7220686173206e6f7420636f6e7472696275746564207460408201526e37903a3434b99031b0b6b830b4b3b760891b606082015260800190565b6020808252601590820152745469746c652063616e6e6f7420626520656d70747960581b604082015260600190565b60208082526025908201527f50726f6a65637420476f616c2073686f756c6420626520677265617465722074604082015264068616e20360dc1b606082015260800190565b6020808252601f908201527f416d6f756e742073686f756c642062652067726561746572207468616e203000604082015260600190565b6020808252818101527f4d696c6573746f6e6520686173206e6f74206265656e2076616c696461746564604082015260600190565b60208082526029908201527f506c6561736520696e7365727420616e20696d61676555524c20666f722074686040820152681948141c9bda9958dd60ba1b606082015260800190565b60208082526026908201527f596f752063616e6e6f7420646f6e61746520746f20796f7572206f776e20636160408201526536b830b4b3b760d11b606082015260800190565b60208082526016908201527543616d706169676e206973206e6f742061637469766560501b604082015260600190565b60208082526023908201527f50726f6a6563742073686f756c642062652073657420696e207468652066757460408201526275726560e81b606082015260800190565b60208082526025908201527f596f752068617665206e6f7420646f6e6174656420746f20746869732063616d6040820152643830b4b3b760d91b606082015260800190565b60208082526024908201527f506c6561736520656e74657220612076616c6964206d696c6573746f6e6520696040820152630dcc8caf60e31b606082015260800190565b6020808252601c908201527f476f616c20616d6f756e7420686173206e6f74206265656e206d657400000000604082015260600190565b6020808252603b908201527f596f752063616e6e6f742077697468647261772066756e64732066726f6d207460408201527f6869732063616d706169676e2061742074686973206d6f6d656e740000000000606082015260800190565b60208082526029908201527f596f752063616e206f6e6c79207374617274206f6e652063616d706169676e20604082015268617420612074696d6560b81b606082015260800190565b6020808252603b908201527f596f752063616e6e6f7420756e706c656467652066756e64732066726f6d207460408201527f6869732063616d706169676e2061742074686973206d6f6d656e740000000000606082015260800190565b6020808252601f908201527f4d696c6573746f6e65732073686f756c64206265206174206c65617374203400604082015260600190565b60208082526024908201527f4d696c6573746f6e6520646f6573206e6f74206861766520656e6f75676820766040820152636f74657360e01b606082015260800190565b60208082526038908201527f596f75206d757374206265204b5943207665726966696564206265666f72652060408201527f796f752063616e20737461727420612063616d706169676e0000000000000000606082015260800190565b60208082526030908201527f596f752068617665206578636565646564207468652076616c6964206e756d6260408201526f6572206f66206d696c6573746f6e657360801b606082015260800190565b6020808252601a908201527f43616d706169676e206973206e6f7420726566756e6461626c65000000000000604082015260600190565b8c81526001600160a01b038c16602082015261018060408201819052600090612dcb8382018e6124f3565b90508281036060840152612ddf818d6124f3565b9150508960808301528860a08301528760c08301528660e083015285610100830152846101208301528361014083015260078310612e2d57634e487b7160e01b600052602160045260246000fd5b826101608301529d9c50505050505050505050505050565b60008219821115612e5857612e58612f33565b500190565b600082612e7857634e487b7160e01b81526012600452602481fd5b500490565b6000816000190483118215151615612e9757612e97612f33565b500290565b600082821015612eae57612eae612f33565b500390565b60005b83811015612ece578181015183820152602001612eb6565b83811115612edd576000848401525b50505050565b600281046001821680612ef757607f821691505b60208210811415610f8957634e487b7160e01b600052602260045260246000fd5b6000600019821415612f2c57612f2c612f33565b5060010190565b634e487b7160e01b600052601160045260246000fd5b634e487b7160e01b600052604160045260246000fdfea2646970667358221220e1ff4485d37efcd49acf26fb6b483d6d0f38a795bcd057c31740959a959f2d7364736f6c63430008000033",
  "linkReferences": {},
  "deployedLinkReferences": {}
}